{
  "contractName": "ERC1155",
  "abi": [
    {
      "inputs": [
        {
          "internalType": "string",
          "name": "uri",
          "type": "string"
        }
      ],
      "stateMutability": "nonpayable",
      "type": "constructor"
    },
    {
      "anonymous": false,
      "inputs": [
        {
          "indexed": true,
          "internalType": "address",
          "name": "account",
          "type": "address"
        },
        {
          "indexed": true,
          "internalType": "address",
          "name": "operator",
          "type": "address"
        },
        {
          "indexed": false,
          "internalType": "bool",
          "name": "approved",
          "type": "bool"
        }
      ],
      "name": "ApprovalForAll",
      "type": "event"
    },
    {
      "anonymous": false,
      "inputs": [
        {
          "indexed": true,
          "internalType": "address",
          "name": "operator",
          "type": "address"
        },
        {
          "indexed": true,
          "internalType": "address",
          "name": "from",
          "type": "address"
        },
        {
          "indexed": true,
          "internalType": "address",
          "name": "to",
          "type": "address"
        },
        {
          "indexed": false,
          "internalType": "uint256[]",
          "name": "ids",
          "type": "uint256[]"
        },
        {
          "indexed": false,
          "internalType": "uint256[]",
          "name": "values",
          "type": "uint256[]"
        }
      ],
      "name": "TransferBatch",
      "type": "event"
    },
    {
      "anonymous": false,
      "inputs": [
        {
          "indexed": true,
          "internalType": "address",
          "name": "operator",
          "type": "address"
        },
        {
          "indexed": true,
          "internalType": "address",
          "name": "from",
          "type": "address"
        },
        {
          "indexed": true,
          "internalType": "address",
          "name": "to",
          "type": "address"
        },
        {
          "indexed": false,
          "internalType": "uint256",
          "name": "id",
          "type": "uint256"
        },
        {
          "indexed": false,
          "internalType": "uint256",
          "name": "value",
          "type": "uint256"
        }
      ],
      "name": "TransferSingle",
      "type": "event"
    },
    {
      "anonymous": false,
      "inputs": [
        {
          "indexed": false,
          "internalType": "string",
          "name": "value",
          "type": "string"
        },
        {
          "indexed": true,
          "internalType": "uint256",
          "name": "id",
          "type": "uint256"
        }
      ],
      "name": "URI",
      "type": "event"
    },
    {
      "inputs": [
        {
          "internalType": "bytes4",
          "name": "interfaceId",
          "type": "bytes4"
        }
      ],
      "name": "supportsInterface",
      "outputs": [
        {
          "internalType": "bool",
          "name": "",
          "type": "bool"
        }
      ],
      "stateMutability": "view",
      "type": "function"
    },
    {
      "inputs": [
        {
          "internalType": "uint256",
          "name": "",
          "type": "uint256"
        }
      ],
      "name": "uri",
      "outputs": [
        {
          "internalType": "string",
          "name": "",
          "type": "string"
        }
      ],
      "stateMutability": "view",
      "type": "function"
    },
    {
      "inputs": [
        {
          "internalType": "address",
          "name": "account",
          "type": "address"
        },
        {
          "internalType": "uint256",
          "name": "id",
          "type": "uint256"
        }
      ],
      "name": "balanceOf",
      "outputs": [
        {
          "internalType": "uint256",
          "name": "",
          "type": "uint256"
        }
      ],
      "stateMutability": "view",
      "type": "function"
    },
    {
      "inputs": [
        {
          "internalType": "address[]",
          "name": "accounts",
          "type": "address[]"
        },
        {
          "internalType": "uint256[]",
          "name": "ids",
          "type": "uint256[]"
        }
      ],
      "name": "balanceOfBatch",
      "outputs": [
        {
          "internalType": "uint256[]",
          "name": "",
          "type": "uint256[]"
        }
      ],
      "stateMutability": "view",
      "type": "function"
    },
    {
      "inputs": [
        {
          "internalType": "address",
          "name": "operator",
          "type": "address"
        },
        {
          "internalType": "bool",
          "name": "approved",
          "type": "bool"
        }
      ],
      "name": "setApprovalForAll",
      "outputs": [],
      "stateMutability": "nonpayable",
      "type": "function"
    },
    {
      "inputs": [
        {
          "internalType": "address",
          "name": "account",
          "type": "address"
        },
        {
          "internalType": "address",
          "name": "operator",
          "type": "address"
        }
      ],
      "name": "isApprovedForAll",
      "outputs": [
        {
          "internalType": "bool",
          "name": "",
          "type": "bool"
        }
      ],
      "stateMutability": "view",
      "type": "function"
    },
    {
      "inputs": [
        {
          "internalType": "address",
          "name": "from",
          "type": "address"
        },
        {
          "internalType": "address",
          "name": "to",
          "type": "address"
        },
        {
          "internalType": "uint256",
          "name": "id",
          "type": "uint256"
        },
        {
          "internalType": "uint256",
          "name": "amount",
          "type": "uint256"
        },
        {
          "internalType": "bytes",
          "name": "data",
          "type": "bytes"
        }
      ],
      "name": "safeTransferFrom",
      "outputs": [],
      "stateMutability": "nonpayable",
      "type": "function"
    },
    {
      "inputs": [
        {
          "internalType": "address",
          "name": "from",
          "type": "address"
        },
        {
          "internalType": "address",
          "name": "to",
          "type": "address"
        },
        {
          "internalType": "uint256[]",
          "name": "ids",
          "type": "uint256[]"
        },
        {
          "internalType": "uint256[]",
          "name": "amounts",
          "type": "uint256[]"
        },
        {
          "internalType": "bytes",
          "name": "data",
          "type": "bytes"
        }
      ],
      "name": "safeBatchTransferFrom",
      "outputs": [],
      "stateMutability": "nonpayable",
      "type": "function"
    },
    {
      "inputs": [
        {
          "internalType": "address",
          "name": "account",
          "type": "address"
        },
        {
          "internalType": "uint256",
          "name": "id",
          "type": "uint256"
        },
        {
          "internalType": "uint256",
          "name": "amount",
          "type": "uint256"
        },
        {
          "internalType": "bytes",
          "name": "data",
          "type": "bytes"
        }
      ],
      "name": "mint",
      "outputs": [],
      "stateMutability": "nonpayable",
      "type": "function"
    },
    {
      "inputs": [
        {
          "internalType": "uint256",
          "name": "id",
          "type": "uint256"
        },
        {
          "internalType": "string[]",
          "name": "newFiles",
          "type": "string[]"
        }
      ],
      "name": "addFile",
      "outputs": [],
      "stateMutability": "nonpayable",
      "type": "function"
    },
    {
      "inputs": [
        {
          "internalType": "uint256",
          "name": "id",
          "type": "uint256"
        }
      ],
      "name": "getFiles",
      "outputs": [
        {
          "internalType": "string[]",
          "name": "",
          "type": "string[]"
        }
      ],
      "stateMutability": "view",
      "type": "function"
    }
  ],
  "bytecode": "0x60806040523480156200001157600080fd5b50604051620031e2380380620031e28339818101604052810190620000379190620002ee565b6200004f6301ffc9a760e01b620000e760201b60201c565b6200006081620001bf60201b60201c565b6200007863d9b67a2660e01b620000e760201b60201c565b62000090630e89341c60e01b620000e760201b60201c565b620000a0620001db60201b60201c565b600160006101000a81548173ffffffffffffffffffffffffffffffffffffffff021916908373ffffffffffffffffffffffffffffffffffffffff1602179055505062000439565b63ffffffff60e01b817bffffffffffffffffffffffffffffffffffffffffffffffffffffffff1916141562000153576040517f08c379a00000000000000000000000000000000000000000000000000000000081526004016200014a9062000375565b60405180910390fd5b6001600080837bffffffffffffffffffffffffffffffffffffffffffffffffffffffff19167bffffffffffffffffffffffffffffffffffffffffffffffffffffffff1916815260200190815260200160002060006101000a81548160ff02191690831515021790555050565b8060069080519060200190620001d7929190620001e3565b5050565b600033905090565b828054600181600116156101000203166002900490600052602060002090601f016020900481019282601f106200022657805160ff191683800117855562000257565b8280016001018555821562000257579182015b828111156200025657825182559160200191906001019062000239565b5b5090506200026691906200026a565b5090565b6200028f91905b808211156200028b57600081600090555060010162000271565b5090565b90565b600082601f830112620002a457600080fd5b8151620002bb620002b582620003c5565b62000397565b91508082526020830160208301858383011115620002d857600080fd5b620002e583828462000403565b50505092915050565b6000602082840312156200030157600080fd5b600082015167ffffffffffffffff8111156200031c57600080fd5b6200032a8482850162000292565b91505092915050565b600062000342601c83620003f2565b91507f4552433136353a20696e76616c696420696e74657266616365206964000000006000830152602082019050919050565b60006020820190508181036000830152620003908162000333565b9050919050565b6000604051905081810181811067ffffffffffffffff82111715620003bb57600080fd5b8060405250919050565b600067ffffffffffffffff821115620003dd57600080fd5b601f19601f8301169050602081019050919050565b600082825260208201905092915050565b60005b838110156200042357808201518184015260208101905062000406565b8381111562000433576000848401525b50505050565b612d9980620004496000396000f3fe608060405234801561001057600080fd5b50600436106100a85760003560e01c80634e1273f4116100715780634e1273f414610189578063731133e9146101b9578063a22cb465146101d5578063e6aae792146101f1578063e985e9c51461020d578063f242432a1461023d576100a8565b8062fdd58e146100ad57806301ffc9a7146100dd5780630e89341c1461010d57806312506f4d1461013d5780632eb2c2d61461016d575b600080fd5b6100c760048036038101906100c29190611d83565b610259565b6040516100d49190612957565b60405180910390f35b6100f760048036038101906100f29190611ea6565b610323565b604051610104919061277a565b60405180910390f35b61012760048036038101906101229190611ef8565b61038a565b6040516101349190612795565b60405180910390f35b61015760048036038101906101529190611ef8565b61042e565b60405161016491906126ff565b60405180910390f35b61018760048036038101906101829190611bf9565b61052a565b005b6101a3600480360381019061019e9190611e3a565b6108ee565b6040516101b09190612721565b60405180910390f35b6101d360048036038101906101ce9190611dbf565b610ab7565b005b6101ef60048036038101906101ea9190611d47565b610cf0565b005b61020b60048036038101906102069190611f21565b610e71565b005b61022760048036038101906102229190611bbd565b610f9b565b604051610234919061277a565b60405180910390f35b61025760048036038101906102529190611cb8565b61102f565b005b60008073ffffffffffffffffffffffffffffffffffffffff168373ffffffffffffffffffffffffffffffffffffffff1614156102ca576040517f08c379a00000000000000000000000000000000000000000000000000000000081526004016102c1906127f7565b60405180910390fd5b6002600083815260200190815260200160002060008473ffffffffffffffffffffffffffffffffffffffff1673ffffffffffffffffffffffffffffffffffffffff16815260200190815260200160002054905092915050565b6000806000837bffffffffffffffffffffffffffffffffffffffffffffffffffffffff19167bffffffffffffffffffffffffffffffffffffffffffffffffffffffff1916815260200190815260200160002060009054906101000a900460ff169050919050565b606060068054600181600116156101000203166002900480601f0160208091040260200160405190810160405280929190818152602001828054600181600116156101000203166002900480156104225780601f106103f757610100808354040283529160200191610422565b820191906000526020600020905b81548152906001019060200180831161040557829003601f168201915b50505050509050919050565b606060036000838152602001908152602001600020805480602002602001604051908101604052809291908181526020016000905b8282101561051f578382906000526020600020018054600181600116156101000203166002900480601f01602080910402602001604051908101604052809291908181526020018280546001816001161561010002031660029004801561050b5780601f106104e05761010080835404028352916020019161050b565b820191906000526020600020905b8154815290600101906020018083116104ee57829003601f168201915b505050505081526020019060010190610463565b505050509050919050565b815183511461056e576040517f08c379a000000000000000000000000000000000000000000000000000000000815260040161056590612917565b60405180910390fd5b600073ffffffffffffffffffffffffffffffffffffffff168473ffffffffffffffffffffffffffffffffffffffff1614156105de576040517f08c379a00000000000000000000000000000000000000000000000000000000081526004016105d590612877565b60405180910390fd5b6105e6611372565b73ffffffffffffffffffffffffffffffffffffffff168573ffffffffffffffffffffffffffffffffffffffff16148061062c575061062b85610626611372565b610f9b565b5b61066b576040517f08c379a000000000000000000000000000000000000000000000000000000000815260040161066290612897565b60405180910390fd5b6000610675611372565b905061068581878787878761137a565b60008090505b84518110156108595760008582815181106106a257fe5b6020026020010151905060008583815181106106ba57fe5b60200260200101519050610741816040518060600160405280602a8152602001612d3a602a91396002600086815260200190815260200160002060008d73ffffffffffffffffffffffffffffffffffffffff1673ffffffffffffffffffffffffffffffffffffffff168152602001908152602001600020546113829092919063ffffffff16565b6002600084815260200190815260200160002060008b73ffffffffffffffffffffffffffffffffffffffff1673ffffffffffffffffffffffffffffffffffffffff168152602001908152602001600020819055506107f8816002600085815260200190815260200160002060008b73ffffffffffffffffffffffffffffffffffffffff1673ffffffffffffffffffffffffffffffffffffffff168152602001908152602001600020546113dd90919063ffffffff16565b6002600084815260200190815260200160002060008a73ffffffffffffffffffffffffffffffffffffffff1673ffffffffffffffffffffffffffffffffffffffff16815260200190815260200160002081905550505080600101905061068b565b508473ffffffffffffffffffffffffffffffffffffffff168673ffffffffffffffffffffffffffffffffffffffff168273ffffffffffffffffffffffffffffffffffffffff167f4a39dc06d4c0dbc64b70af90fd698a233a518aa5d07e595d983b8c0526c8f7fb87876040516108d0929190612743565b60405180910390a46108e6818787878787611432565b505050505050565b60608151835114610934576040517f08c379a000000000000000000000000000000000000000000000000000000000815260040161092b906128f7565b60405180910390fd5b6060835167ffffffffffffffff8111801561094e57600080fd5b5060405190808252806020026020018201604052801561097d5781602001602082028036833780820191505090505b50905060008090505b8451811015610aac57600073ffffffffffffffffffffffffffffffffffffffff168582815181106109b357fe5b602002602001015173ffffffffffffffffffffffffffffffffffffffff161415610a12576040517f08c379a0000000000000000000000000000000000000000000000000000000008152600401610a0990612817565b60405180910390fd5b60026000858381518110610a2257fe5b602002602001015181526020019081526020016000206000868381518110610a4657fe5b602002602001015173ffffffffffffffffffffffffffffffffffffffff1673ffffffffffffffffffffffffffffffffffffffff16815260200190815260200160002054828281518110610a9557fe5b602002602001018181525050806001019050610986565b508091505092915050565b600073ffffffffffffffffffffffffffffffffffffffff168473ffffffffffffffffffffffffffffffffffffffff161415610b27576040517f08c379a0000000000000000000000000000000000000000000000000000000008152600401610b1e90612937565b60405180910390fd5b6000610b31611372565b9050610b5281600087610b4388611602565b610b4c88611602565b8761137a565b610bb5836002600087815260200190815260200160002060008873ffffffffffffffffffffffffffffffffffffffff1673ffffffffffffffffffffffffffffffffffffffff168152602001908152602001600020546113dd90919063ffffffff16565b6002600086815260200190815260200160002060008773ffffffffffffffffffffffffffffffffffffffff1673ffffffffffffffffffffffffffffffffffffffff16815260200190815260200160002081905550806004600086815260200190815260200160002060006101000a81548173ffffffffffffffffffffffffffffffffffffffff021916908373ffffffffffffffffffffffffffffffffffffffff1602179055508473ffffffffffffffffffffffffffffffffffffffff16600073ffffffffffffffffffffffffffffffffffffffff168273ffffffffffffffffffffffffffffffffffffffff167fc3d58168c5ae7397731d063d5bbf3d657854427343f4c083240f7aacaa2d0f628787604051610cd2929190612972565b60405180910390a4610ce981600087878787611672565b5050505050565b8173ffffffffffffffffffffffffffffffffffffffff16610d0f611372565b73ffffffffffffffffffffffffffffffffffffffff161415610d66576040517f08c379a0000000000000000000000000000000000000000000000000000000008152600401610d5d906128d7565b60405180910390fd5b8060056000610d73611372565b73ffffffffffffffffffffffffffffffffffffffff1673ffffffffffffffffffffffffffffffffffffffff16815260200190815260200160002060008473ffffffffffffffffffffffffffffffffffffffff1673ffffffffffffffffffffffffffffffffffffffff16815260200190815260200160002060006101000a81548160ff0219169083151502179055508173ffffffffffffffffffffffffffffffffffffffff16610e20611372565b73ffffffffffffffffffffffffffffffffffffffff167f17307eab39ab6107e8899845ad3d59bd9653f200f220920489ca2b5937696c3183604051610e65919061277a565b60405180910390a35050565b610e79611372565b73ffffffffffffffffffffffffffffffffffffffff166004600084815260200190815260200160002060009054906101000a900473ffffffffffffffffffffffffffffffffffffffff1673ffffffffffffffffffffffffffffffffffffffff1614610f19576040517f08c379a0000000000000000000000000000000000000000000000000000000008152600401610f10906128b7565b60405180910390fd5b60008090505b8151811015610f96576003600084815260200190815260200160002082600081518110610f4857fe5b6020026020010151908060018154018082558091505060019003906000526020600020016000909190919091509080519060200190610f8892919061188d565b508080600101915050610f1f565b505050565b6000600560008473ffffffffffffffffffffffffffffffffffffffff1673ffffffffffffffffffffffffffffffffffffffff16815260200190815260200160002060008373ffffffffffffffffffffffffffffffffffffffff1673ffffffffffffffffffffffffffffffffffffffff16815260200190815260200160002060009054906101000a900460ff16905092915050565b600073ffffffffffffffffffffffffffffffffffffffff168473ffffffffffffffffffffffffffffffffffffffff16141561109f576040517f08c379a000000000000000000000000000000000000000000000000000000000815260040161109690612877565b60405180910390fd5b6110a7611372565b73ffffffffffffffffffffffffffffffffffffffff168573ffffffffffffffffffffffffffffffffffffffff1614806110ed57506110ec856110e7611372565b610f9b565b5b61112c576040517f08c379a000000000000000000000000000000000000000000000000000000000815260040161112390612857565b60405180910390fd5b6000611136611372565b905061115681878761114788611602565b61115088611602565b8761137a565b6111d3836040518060600160405280602a8152602001612d3a602a91396002600088815260200190815260200160002060008a73ffffffffffffffffffffffffffffffffffffffff1673ffffffffffffffffffffffffffffffffffffffff168152602001908152602001600020546113829092919063ffffffff16565b6002600086815260200190815260200160002060008873ffffffffffffffffffffffffffffffffffffffff1673ffffffffffffffffffffffffffffffffffffffff1681526020019081526020016000208190555061128a836002600087815260200190815260200160002060008873ffffffffffffffffffffffffffffffffffffffff1673ffffffffffffffffffffffffffffffffffffffff168152602001908152602001600020546113dd90919063ffffffff16565b6002600086815260200190815260200160002060008773ffffffffffffffffffffffffffffffffffffffff1673ffffffffffffffffffffffffffffffffffffffff168152602001908152602001600020819055508473ffffffffffffffffffffffffffffffffffffffff168673ffffffffffffffffffffffffffffffffffffffff168273ffffffffffffffffffffffffffffffffffffffff167fc3d58168c5ae7397731d063d5bbf3d657854427343f4c083240f7aacaa2d0f628787604051611354929190612972565b60405180910390a461136a818787878787611672565b505050505050565b600033905090565b505050505050565b60008383111582906113ca576040517f08c379a00000000000000000000000000000000000000000000000000000000081526004016113c19190612795565b60405180910390fd5b5060008385039050809150509392505050565b600080828401905083811015611428576040517f08c379a000000000000000000000000000000000000000000000000000000000815260040161141f90612837565b60405180910390fd5b8091505092915050565b6114518473ffffffffffffffffffffffffffffffffffffffff16611842565b156115fa578373ffffffffffffffffffffffffffffffffffffffff1663bc197c8187878686866040518663ffffffff1660e01b815260040161149795949392919061263d565b602060405180830381600087803b1580156114b157600080fd5b505af19250505080156114e257506040513d601f19601f820116820180604052508101906114df9190611ecf565b60015b611571576114ee612c27565b806114f95750611536565b806040517f08c379a000000000000000000000000000000000000000000000000000000000815260040161152d9190612795565b60405180910390fd5b6040517f08c379a0000000000000000000000000000000000000000000000000000000008152600401611568906127b7565b60405180910390fd5b63bc197c8160e01b7bffffffffffffffffffffffffffffffffffffffffffffffffffffffff1916817bffffffffffffffffffffffffffffffffffffffffffffffffffffffff1916146115f8576040517f08c379a00000000000000000000000000000000000000000000000000000000081526004016115ef906127d7565b60405180910390fd5b505b505050505050565b606080600167ffffffffffffffff8111801561161d57600080fd5b5060405190808252806020026020018201604052801561164c5781602001602082028036833780820191505090505b509050828160008151811061165d57fe5b60200260200101818152505080915050919050565b6116918473ffffffffffffffffffffffffffffffffffffffff16611842565b1561183a578373ffffffffffffffffffffffffffffffffffffffff1663f23a6e6187878686866040518663ffffffff1660e01b81526004016116d79594939291906126a5565b602060405180830381600087803b1580156116f157600080fd5b505af192505050801561172257506040513d601f19601f8201168201806040525081019061171f9190611ecf565b60015b6117b15761172e612c27565b806117395750611776565b806040517f08c379a000000000000000000000000000000000000000000000000000000000815260040161176d9190612795565b60405180910390fd5b6040517f08c379a00000000000000000000000000000000000000000000000000000000081526004016117a8906127b7565b60405180910390fd5b63f23a6e6160e01b7bffffffffffffffffffffffffffffffffffffffffffffffffffffffff1916817bffffffffffffffffffffffffffffffffffffffffffffffffffffffff191614611838576040517f08c379a000000000000000000000000000000000000000000000000000000000815260040161182f906127d7565b60405180910390fd5b505b505050505050565b60008060007fc5d2460186f7233c927e7db2dcc703c0e500b653ca82273b7bfad8045d85a47060001b9050833f915080821415801561188457506000801b8214155b92505050919050565b828054600181600116156101000203166002900490600052602060002090601f016020900481019282601f106118ce57805160ff19168380011785556118fc565b828001600101855582156118fc579182015b828111156118fb5782518255916020019190600101906118e0565b5b509050611909919061190d565b5090565b61192f91905b8082111561192b576000816000905550600101611913565b5090565b90565b60008135905061194181612cdd565b92915050565b600082601f83011261195857600080fd5b813561196b611966826129c8565b61299b565b9150818183526020840193506020810190508385602084028201111561199057600080fd5b60005b838110156119c057816119a68882611932565b845260208401935060208301925050600181019050611993565b5050505092915050565b600082601f8301126119db57600080fd5b81356119ee6119e9826129f0565b61299b565b9150818183526020840193506020810190508360005b83811015611a345781358601611a1a8882611b54565b845260208401935060208301925050600181019050611a04565b5050505092915050565b600082601f830112611a4f57600080fd5b8135611a62611a5d82612a18565b61299b565b91508181835260208401935060208101905083856020840282011115611a8757600080fd5b60005b83811015611ab75781611a9d8882611ba8565b845260208401935060208301925050600181019050611a8a565b5050505092915050565b600081359050611ad081612cf4565b92915050565b600081359050611ae581612d0b565b92915050565b600081519050611afa81612d0b565b92915050565b600082601f830112611b1157600080fd5b8135611b24611b1f82612a40565b61299b565b91508082526020830160208301858383011115611b4057600080fd5b611b4b838284612bc7565b50505092915050565b600082601f830112611b6557600080fd5b8135611b78611b7382612a6c565b61299b565b91508082526020830160208301858383011115611b9457600080fd5b611b9f838284612bc7565b50505092915050565b600081359050611bb781612d22565b92915050565b60008060408385031215611bd057600080fd5b6000611bde85828601611932565b9250506020611bef85828601611932565b9150509250929050565b600080600080600060a08688031215611c1157600080fd5b6000611c1f88828901611932565b9550506020611c3088828901611932565b945050604086013567ffffffffffffffff811115611c4d57600080fd5b611c5988828901611a3e565b935050606086013567ffffffffffffffff811115611c7657600080fd5b611c8288828901611a3e565b925050608086013567ffffffffffffffff811115611c9f57600080fd5b611cab88828901611b00565b9150509295509295909350565b600080600080600060a08688031215611cd057600080fd5b6000611cde88828901611932565b9550506020611cef88828901611932565b9450506040611d0088828901611ba8565b9350506060611d1188828901611ba8565b925050608086013567ffffffffffffffff811115611d2e57600080fd5b611d3a88828901611b00565b9150509295509295909350565b60008060408385031215611d5a57600080fd5b6000611d6885828601611932565b9250506020611d7985828601611ac1565b9150509250929050565b60008060408385031215611d9657600080fd5b6000611da485828601611932565b9250506020611db585828601611ba8565b9150509250929050565b60008060008060808587031215611dd557600080fd5b6000611de387828801611932565b9450506020611df487828801611ba8565b9350506040611e0587828801611ba8565b925050606085013567ffffffffffffffff811115611e2257600080fd5b611e2e87828801611b00565b91505092959194509250565b60008060408385031215611e4d57600080fd5b600083013567ffffffffffffffff811115611e6757600080fd5b611e7385828601611947565b925050602083013567ffffffffffffffff811115611e9057600080fd5b611e9c85828601611a3e565b9150509250929050565b600060208284031215611eb857600080fd5b6000611ec684828501611ad6565b91505092915050565b600060208284031215611ee157600080fd5b6000611eef84828501611aeb565b91505092915050565b600060208284031215611f0a57600080fd5b6000611f1884828501611ba8565b91505092915050565b60008060408385031215611f3457600080fd5b6000611f4285828601611ba8565b925050602083013567ffffffffffffffff811115611f5f57600080fd5b611f6b858286016119ca565b9150509250929050565b6000611f8183836120cb565b905092915050565b6000611f95838361261f565b60208301905092915050565b611faa81612b53565b82525050565b6000611fbb82612ab8565b611fc58185612afe565b935083602082028501611fd785612a98565b8060005b858110156120135784840389528151611ff48582611f75565b9450611fff83612ae4565b925060208a01995050600181019050611fdb565b50829750879550505050505092915050565b600061203082612ac3565b61203a8185612b0f565b935061204583612aa8565b8060005b8381101561207657815161205d8882611f89565b975061206883612af1565b925050600181019050612049565b5085935050505092915050565b61208c81612b65565b82525050565b600061209d82612ace565b6120a78185612b20565b93506120b7818560208601612bd6565b6120c081612c09565b840191505092915050565b60006120d682612ad9565b6120e08185612b31565b93506120f0818560208601612bd6565b6120f981612c09565b840191505092915050565b600061210f82612ad9565b6121198185612b42565b9350612129818560208601612bd6565b61213281612c09565b840191505092915050565b600061214a603483612b42565b91507f455243313135353a207472616e7366657220746f206e6f6e204552433131353560008301527f526563656976657220696d706c656d656e7465720000000000000000000000006020830152604082019050919050565b60006121b0602883612b42565b91507f455243313135353a204552433131353552656365697665722072656a6563746560008301527f6420746f6b656e730000000000000000000000000000000000000000000000006020830152604082019050919050565b6000612216602b83612b42565b91507f455243313135353a2062616c616e636520717565727920666f7220746865207a60008301527f65726f20616464726573730000000000000000000000000000000000000000006020830152604082019050919050565b600061227c603183612b42565b91507f455243313135353a2062617463682062616c616e636520717565727920666f7260008301527f20746865207a65726f20616464726573730000000000000000000000000000006020830152604082019050919050565b60006122e2601b83612b42565b91507f536166654d6174683a206164646974696f6e206f766572666c6f7700000000006000830152602082019050919050565b6000612322602983612b42565b91507f455243313135353a2063616c6c6572206973206e6f74206f776e6572206e6f7260008301527f20617070726f76656400000000000000000000000000000000000000000000006020830152604082019050919050565b6000612388602583612b42565b91507f455243313135353a207472616e7366657220746f20746865207a65726f20616460008301527f64726573730000000000000000000000000000000000000000000000000000006020830152604082019050919050565b60006123ee603283612b42565b91507f455243313135353a207472616e736665722063616c6c6572206973206e6f742060008301527f6f776e6572206e6f7220617070726f76656400000000000000000000000000006020830152604082019050919050565b6000612454600d83612b42565b91507f4d757374206265206f776e6572000000000000000000000000000000000000006000830152602082019050919050565b6000612494602983612b42565b91507f455243313135353a2073657474696e6720617070726f76616c2073746174757360008301527f20666f722073656c6600000000000000000000000000000000000000000000006020830152604082019050919050565b60006124fa602983612b42565b91507f455243313135353a206163636f756e747320616e6420696473206c656e67746860008301527f206d69736d6174636800000000000000000000000000000000000000000000006020830152604082019050919050565b6000612560602883612b42565b91507f455243313135353a2069647320616e6420616d6f756e7473206c656e6774682060008301527f6d69736d617463680000000000000000000000000000000000000000000000006020830152604082019050919050565b60006125c6602183612b42565b91507f455243313135353a206d696e7420746f20746865207a65726f2061646472657360008301527f73000000000000000000000000000000000000000000000000000000000000006020830152604082019050919050565b61262881612bbd565b82525050565b61263781612bbd565b82525050565b600060a0820190506126526000830188611fa1565b61265f6020830187611fa1565b81810360408301526126718186612025565b905081810360608301526126858185612025565b905081810360808301526126998184612092565b90509695505050505050565b600060a0820190506126ba6000830188611fa1565b6126c76020830187611fa1565b6126d4604083018661262e565b6126e1606083018561262e565b81810360808301526126f38184612092565b90509695505050505050565b600060208201905081810360008301526127198184611fb0565b905092915050565b6000602082019050818103600083015261273b8184612025565b905092915050565b6000604082019050818103600083015261275d8185612025565b905081810360208301526127718184612025565b90509392505050565b600060208201905061278f6000830184612083565b92915050565b600060208201905081810360008301526127af8184612104565b905092915050565b600060208201905081810360008301526127d08161213d565b9050919050565b600060208201905081810360008301526127f0816121a3565b9050919050565b6000602082019050818103600083015261281081612209565b9050919050565b600060208201905081810360008301526128308161226f565b9050919050565b60006020820190508181036000830152612850816122d5565b9050919050565b6000602082019050818103600083015261287081612315565b9050919050565b600060208201905081810360008301526128908161237b565b9050919050565b600060208201905081810360008301526128b0816123e1565b9050919050565b600060208201905081810360008301526128d081612447565b9050919050565b600060208201905081810360008301526128f081612487565b9050919050565b60006020820190508181036000830152612910816124ed565b9050919050565b6000602082019050818103600083015261293081612553565b9050919050565b60006020820190508181036000830152612950816125b9565b9050919050565b600060208201905061296c600083018461262e565b92915050565b6000604082019050612987600083018561262e565b612994602083018461262e565b9392505050565b6000604051905081810181811067ffffffffffffffff821117156129be57600080fd5b8060405250919050565b600067ffffffffffffffff8211156129df57600080fd5b602082029050602081019050919050565b600067ffffffffffffffff821115612a0757600080fd5b602082029050602081019050919050565b600067ffffffffffffffff821115612a2f57600080fd5b602082029050602081019050919050565b600067ffffffffffffffff821115612a5757600080fd5b601f19601f8301169050602081019050919050565b600067ffffffffffffffff821115612a8357600080fd5b601f19601f8301169050602081019050919050565b6000819050602082019050919050565b6000819050602082019050919050565b600081519050919050565b600081519050919050565b600081519050919050565b600081519050919050565b6000602082019050919050565b6000602082019050919050565b600082825260208201905092915050565b600082825260208201905092915050565b600082825260208201905092915050565b600082825260208201905092915050565b600082825260208201905092915050565b6000612b5e82612b9d565b9050919050565b60008115159050919050565b60007fffffffff0000000000000000000000000000000000000000000000000000000082169050919050565b600073ffffffffffffffffffffffffffffffffffffffff82169050919050565b6000819050919050565b82818337600083830152505050565b60005b83811015612bf4578082015181840152602081019050612bd9565b83811115612c03576000848401525b50505050565b6000601f19601f8301169050919050565b60008160e01c9050919050565b600060443d1015612c3757612cda565b60046000803e612c48600051612c1a565b6308c379a08114612c595750612cda565b60405160043d036004823e80513d602482011167ffffffffffffffff82111715612c8557505050612cda565b808201805167ffffffffffffffff811115612ca4575050505050612cda565b8060208301013d8501811115612cbf57505050505050612cda565b612cc882612c09565b60208401016040528296505050505050505b90565b612ce681612b53565b8114612cf157600080fd5b50565b612cfd81612b65565b8114612d0857600080fd5b50565b612d1481612b71565b8114612d1f57600080fd5b50565b612d2b81612bbd565b8114612d3657600080fd5b5056fe455243313135353a20696e73756666696369656e742062616c616e636520666f72207472616e73666572a2646970667358221220ad49e4dc00a71d2ca756a65a93e5ca54e8dcb49c7c65d74fbdafecb49171bb2c64736f6c634300060b0033",
  "immutableReferences": {},
  "source": "pragma solidity ^0.6.0;\npragma experimental ABIEncoderV2;\n\nimport \"@openzeppelin/contracts/token/ERC1155/IERC1155.sol\";\nimport \"@openzeppelin/contracts/token/ERC1155/IERC1155MetadataURI.sol\";\nimport \"@openzeppelin/contracts/token/ERC1155/IERC1155Receiver.sol\";\nimport \"@openzeppelin/contracts/GSN/Context.sol\";\nimport \"@openzeppelin/contracts/introspection/ERC165.sol\";\nimport \"@openzeppelin/contracts/math/SafeMath.sol\";\nimport \"@openzeppelin/contracts/utils/Address.sol\";\n\n/**\n *\n * @dev Implementation of the basic standard multi-token.\n * See https://eips.ethereum.org/EIPS/eip-1155\n * Originally based on code by Enjin: https://github.com/enjin/erc-1155\n *\n * _Available since v3.1._\n */\ncontract ERC1155 is Context, ERC165, IERC1155, IERC1155MetadataURI {\n    using SafeMath for uint256;\n    using Address for address;\n\n\n    address private _rootOwner;\n\n    // Mapping from token ID to account balances\n    mapping (uint256 => mapping(address => uint256)) private _balances;\n\n    // Mapping from token ID to meta data files\n    mapping (uint256 => string []) private _files;\n\n    // Mapping from token ID to owner account\n    mapping (uint256 => address) private _creators;\n\n    // Mapping from account to operator approvals\n    mapping (address => mapping(address => bool)) private _operatorApprovals;\n\n    // Used as the URI for all token types by relying on ID substition, e.g. https://token-cdn-domain/{id}.json\n    string private _uri;\n\n    /*\n     *     bytes4(keccak256('balanceOf(address,uint256)')) == 0x00fdd58e\n     *     bytes4(keccak256('balanceOfBatch(address[],uint256[])')) == 0x4e1273f4\n     *     bytes4(keccak256('setApprovalForAll(address,bool)')) == 0xa22cb465\n     *     bytes4(keccak256('isApprovedForAll(address,address)')) == 0xe985e9c5\n     *     bytes4(keccak256('safeTransferFrom(address,address,uint256,uint256,bytes)')) == 0xf242432a\n     *     bytes4(keccak256('safeBatchTransferFrom(address,address,uint256[],uint256[],bytes)')) == 0x2eb2c2d6\n     *\n     *     => 0x00fdd58e ^ 0x4e1273f4 ^ 0xa22cb465 ^\n     *        0xe985e9c5 ^ 0xf242432a ^ 0x2eb2c2d6 == 0xd9b67a26\n     */\n    bytes4 private constant _INTERFACE_ID_ERC1155 = 0xd9b67a26;\n\n    /*\n     *     bytes4(keccak256('uri(uint256)')) == 0x0e89341c\n     */\n    bytes4 private constant _INTERFACE_ID_ERC1155_METADATA_URI = 0x0e89341c;\n\n    /**\n     * @dev See {_setURI}.\n     */\n    constructor (string memory uri) public {\n        _setURI(uri);\n\n        // register the supported interfaces to conform to ERC1155 via ERC165\n        _registerInterface(_INTERFACE_ID_ERC1155);\n\n        // register the supported interfaces to conform to ERC1155MetadataURI via ERC165\n        _registerInterface(_INTERFACE_ID_ERC1155_METADATA_URI);\n\n        _rootOwner = _msgSender();\n    }\n\n    /**\n     * @dev See {IERC1155MetadataURI-uri}.\n     *\n     * This implementation returns the same URI for *all* token types. It relies\n     * on the token type ID substituion mechanism\n     * https://eips.ethereum.org/EIPS/eip-1155#metadata[defined in the EIP].\n     *\n     * Clients calling this function must replace the `\\{id\\}` substring with the\n     * actual token type ID.\n     */\n    function uri(uint256) external view override returns (string memory) {\n        return _uri;\n    }\n\n    /**\n     * @dev See {IERC1155-balanceOf}.\n     *\n     * Requirements:\n     *\n     * - `account` cannot be the zero address.\n     */\n    function balanceOf(address account, uint256 id) public view override returns (uint256) {\n        require(account != address(0), \"ERC1155: balance query for the zero address\");\n        return _balances[id][account];\n    }\n\n    /**\n     * @dev See {IERC1155-balanceOfBatch}.\n     *\n     * Requirements:\n     *\n     * - `accounts` and `ids` must have the same length.\n     */\n    function balanceOfBatch(\n        address[] memory accounts,\n        uint256[] memory ids\n    )\n        public\n        view\n        override\n        returns (uint256[] memory)\n    {\n        require(accounts.length == ids.length, \"ERC1155: accounts and ids length mismatch\");\n\n        uint256[] memory batchBalances = new uint256[](accounts.length);\n\n        for (uint256 i = 0; i < accounts.length; ++i) {\n            require(accounts[i] != address(0), \"ERC1155: batch balance query for the zero address\");\n            batchBalances[i] = _balances[ids[i]][accounts[i]];\n        }\n\n        return batchBalances;\n    }\n\n    /**\n     * @dev See {IERC1155-setApprovalForAll}.\n     */\n    function setApprovalForAll(address operator, bool approved) public virtual override {\n        require(_msgSender() != operator, \"ERC1155: setting approval status for self\");\n\n        _operatorApprovals[_msgSender()][operator] = approved;\n        emit ApprovalForAll(_msgSender(), operator, approved);\n    }\n\n    /**\n     * @dev See {IERC1155-isApprovedForAll}.\n     */\n    function isApprovedForAll(address account, address operator) public view override returns (bool) {\n        return _operatorApprovals[account][operator];\n    }\n\n    /**\n     * @dev See {IERC1155-safeTransferFrom}.\n     */\n    function safeTransferFrom(\n        address from,\n        address to,\n        uint256 id,\n        uint256 amount,\n        bytes memory data\n    )\n        public\n        virtual\n        override\n    {\n        require(to != address(0), \"ERC1155: transfer to the zero address\");\n        require(\n            from == _msgSender() || isApprovedForAll(from, _msgSender()),\n            \"ERC1155: caller is not owner nor approved\"\n        );\n\n        address operator = _msgSender();\n\n        _beforeTokenTransfer(operator, from, to, _asSingletonArray(id), _asSingletonArray(amount), data);\n\n        _balances[id][from] = _balances[id][from].sub(amount, \"ERC1155: insufficient balance for transfer\");\n        _balances[id][to] = _balances[id][to].add(amount);\n\n        emit TransferSingle(operator, from, to, id, amount);\n\n        _doSafeTransferAcceptanceCheck(operator, from, to, id, amount, data);\n    }\n\n    /**\n     * @dev See {IERC1155-safeBatchTransferFrom}.\n     */\n    function safeBatchTransferFrom(\n        address from,\n        address to,\n        uint256[] memory ids,\n        uint256[] memory amounts,\n        bytes memory data\n    )\n        public\n        virtual\n        override\n    {\n        require(ids.length == amounts.length, \"ERC1155: ids and amounts length mismatch\");\n        require(to != address(0), \"ERC1155: transfer to the zero address\");\n        require(\n            from == _msgSender() || isApprovedForAll(from, _msgSender()),\n            \"ERC1155: transfer caller is not owner nor approved\"\n        );\n\n        address operator = _msgSender();\n\n        _beforeTokenTransfer(operator, from, to, ids, amounts, data);\n\n        for (uint256 i = 0; i < ids.length; ++i) {\n            uint256 id = ids[i];\n            uint256 amount = amounts[i];\n\n            _balances[id][from] = _balances[id][from].sub(\n                amount,\n                \"ERC1155: insufficient balance for transfer\"\n            );\n            _balances[id][to] = _balances[id][to].add(amount);\n        }\n\n        emit TransferBatch(operator, from, to, ids, amounts);\n\n        _doSafeBatchTransferAcceptanceCheck(operator, from, to, ids, amounts, data);\n    }\n\n    /**\n     * @dev Sets a new URI for all token types, by relying on the token type ID\n     * substituion mechanism\n     * https://eips.ethereum.org/EIPS/eip-1155#metadata[defined in the EIP].\n     *\n     * By this mechanism, any occurence of the `\\{id\\}` substring in either the\n     * URI or any of the amounts in the JSON file at said URI will be replaced by\n     * clients with the token type ID.\n     *\n     * For example, the `https://token-cdn-domain/\\{id\\}.json` URI would be\n     * interpreted by clients as\n     * `https://token-cdn-domain/000000000000000000000000000000000000000000000000000000000004cce0.json`\n     * for token type ID 0x4cce0.\n     *\n     * See {uri}.\n     *\n     * Because these URIs cannot be meaningfully represented by the {URI} event,\n     * this function emits no events.\n     */\n    function _setURI(string memory newuri) internal virtual {\n        _uri = newuri;\n    }\n\n    /**\n     * @dev Creates `amount` tokens of token type `id`, and assigns them to `account`.\n     *\n     * Emits a {TransferSingle} event.\n     *\n     * Requirements:\n     *\n     * - `account` cannot be the zero address.\n     * - If `to` refers to a smart contract, it must implement {IERC1155Receiver-onERC1155Received} and return the\n     * acceptance magic value.\n     */\n    function mint(address account, uint256 id, uint256 amount, bytes memory data) public {\n        require(account != address(0), \"ERC1155: mint to the zero address\");\n\n        address operator = _msgSender();\n\n        _beforeTokenTransfer(operator, address(0), account, _asSingletonArray(id), _asSingletonArray(amount), data);\n\n        _balances[id][account] = _balances[id][account].add(amount);\n        _creators[id] = operator;\n\n        emit TransferSingle(operator, address(0), account, id, amount);\n\n        _doSafeTransferAcceptanceCheck(operator, address(0), account, id, amount, data);\n    }\n\n    function addFile(uint256 id, string [] memory newFiles) public {\n        require(_creators[id] == _msgSender(), \"Must be owner\");\n\n        for (uint i = 0; i < newFiles.length; i++) {\n            _files[id].push(newFiles[0]);\n        }\n    }\n\n    function getFiles (uint256 id) public view returns (string [] memory) {\n        return _files[id];\n    }\n\n    /**\n     * @dev xref:ROOT:erc1155.adoc#batch-operations[Batched] version of {_mint}.\n     *\n     * Requirements:\n     *\n     * - `ids` and `amounts` must have the same length.\n     * - If `to` refers to a smart contract, it must implement {IERC1155Receiver-onERC1155BatchReceived} and return the\n     * acceptance magic value.\n     */\n    function _mintBatch(address to, uint256[] memory ids, uint256[] memory amounts, bytes memory data) internal virtual {\n        require(to != address(0), \"ERC1155: mint to the zero address\");\n        require(ids.length == amounts.length, \"ERC1155: ids and amounts length mismatch\");\n\n        address operator = _msgSender();\n\n        _beforeTokenTransfer(operator, address(0), to, ids, amounts, data);\n\n        for (uint i = 0; i < ids.length; i++) {\n            _balances[ids[i]][to] = amounts[i].add(_balances[ids[i]][to]);\n        }\n\n        emit TransferBatch(operator, address(0), to, ids, amounts);\n\n        _doSafeBatchTransferAcceptanceCheck(operator, address(0), to, ids, amounts, data);\n    }\n\n    /**\n     * @dev Destroys `amount` tokens of token type `id` from `account`\n     *\n     * Requirements:\n     *\n     * - `account` cannot be the zero address.\n     * - `account` must have at least `amount` tokens of token type `id`.\n     */\n    function _burn(address account, uint256 id, uint256 amount) internal virtual {\n        require(account != address(0), \"ERC1155: burn from the zero address\");\n\n        address operator = _msgSender();\n\n        _beforeTokenTransfer(operator, account, address(0), _asSingletonArray(id), _asSingletonArray(amount), \"\");\n\n        _balances[id][account] = _balances[id][account].sub(\n            amount,\n            \"ERC1155: burn amount exceeds balance\"\n        );\n\n        emit TransferSingle(operator, account, address(0), id, amount);\n    }\n\n    /**\n     * @dev xref:ROOT:erc1155.adoc#batch-operations[Batched] version of {_burn}.\n     *\n     * Requirements:\n     *\n     * - `ids` and `amounts` must have the same length.\n     */\n    function _burnBatch(address account, uint256[] memory ids, uint256[] memory amounts) internal virtual {\n        require(account != address(0), \"ERC1155: burn from the zero address\");\n        require(ids.length == amounts.length, \"ERC1155: ids and amounts length mismatch\");\n\n        address operator = _msgSender();\n\n        _beforeTokenTransfer(operator, account, address(0), ids, amounts, \"\");\n\n        for (uint i = 0; i < ids.length; i++) {\n            _balances[ids[i]][account] = _balances[ids[i]][account].sub(\n                amounts[i],\n                \"ERC1155: burn amount exceeds balance\"\n            );\n        }\n\n        emit TransferBatch(operator, account, address(0), ids, amounts);\n    }\n\n    /**\n     * @dev Hook that is called before any token transfer. This includes minting\n     * and burning, as well as batched variants.\n     *\n     * The same hook is called on both single and batched variants. For single\n     * transfers, the length of the `id` and `amount` arrays will be 1.\n     *\n     * Calling conditions (for each `id` and `amount` pair):\n     *\n     * - When `from` and `to` are both non-zero, `amount` of ``from``'s tokens\n     * of token type `id` will be  transferred to `to`.\n     * - When `from` is zero, `amount` tokens of token type `id` will be minted\n     * for `to`.\n     * - when `to` is zero, `amount` of ``from``'s tokens of token type `id`\n     * will be burned.\n     * - `from` and `to` are never both zero.\n     * - `ids` and `amounts` have the same, non-zero length.\n     *\n     * To learn more about hooks, head to xref:ROOT:extending-contracts.adoc#using-hooks[Using Hooks].\n     */\n    function _beforeTokenTransfer(\n        address operator,\n        address from,\n        address to,\n        uint256[] memory ids,\n        uint256[] memory amounts,\n        bytes memory data\n    )\n        internal virtual\n    { }\n\n    function _doSafeTransferAcceptanceCheck(\n        address operator,\n        address from,\n        address to,\n        uint256 id,\n        uint256 amount,\n        bytes memory data\n    )\n        private\n    {\n        if (to.isContract()) {\n            try IERC1155Receiver(to).onERC1155Received(operator, from, id, amount, data) returns (bytes4 response) {\n                if (response != IERC1155Receiver(to).onERC1155Received.selector) {\n                    revert(\"ERC1155: ERC1155Receiver rejected tokens\");\n                }\n            } catch Error(string memory reason) {\n                revert(reason);\n            } catch {\n                revert(\"ERC1155: transfer to non ERC1155Receiver implementer\");\n            }\n        }\n    }\n\n    function _doSafeBatchTransferAcceptanceCheck(\n        address operator,\n        address from,\n        address to,\n        uint256[] memory ids,\n        uint256[] memory amounts,\n        bytes memory data\n    )\n        private\n    {\n        if (to.isContract()) {\n            try IERC1155Receiver(to).onERC1155BatchReceived(operator, from, ids, amounts, data) returns (bytes4 response) {\n                if (response != IERC1155Receiver(to).onERC1155BatchReceived.selector) {\n                    revert(\"ERC1155: ERC1155Receiver rejected tokens\");\n                }\n            } catch Error(string memory reason) {\n                revert(reason);\n            } catch {\n                revert(\"ERC1155: transfer to non ERC1155Receiver implementer\");\n            }\n        }\n    }\n\n    function _asSingletonArray(uint256 element) private pure returns (uint256[] memory) {\n        uint256[] memory array = new uint256[](1);\n        array[0] = element;\n\n        return array;\n    }\n}\n",
  "sourcePath": "/var/www/licenserocks-app/truffle/contracts/ERC1155.sol",
  "compiler": {
    "name": "solc",
    "version": "0.6.11+commit.5ef660b1.Emscripten.clang"
  },
  "schemaVersion": "3.2.1",
  "updatedAt": "2020-07-09T10:37:35.786Z",
  "devdoc": {
    "details": "Implementation of the basic standard multi-token. See https://eips.ethereum.org/EIPS/eip-1155 Originally based on code by Enjin: https://github.com/enjin/erc-1155 _Available since v3.1._",
    "kind": "dev",
    "methods": {
      "balanceOf(address,uint256)": {
        "details": "See {IERC1155-balanceOf}. Requirements: - `account` cannot be the zero address."
      },
      "balanceOfBatch(address[],uint256[])": {
        "details": "See {IERC1155-balanceOfBatch}. Requirements: - `accounts` and `ids` must have the same length."
      },
      "constructor": {
        "details": "See {_setURI}."
      },
      "isApprovedForAll(address,address)": {
        "details": "See {IERC1155-isApprovedForAll}."
      },
      "mint(address,uint256,uint256,bytes)": {
        "details": "Creates `amount` tokens of token type `id`, and assigns them to `account`. Emits a {TransferSingle} event. Requirements: - `account` cannot be the zero address. - If `to` refers to a smart contract, it must implement {IERC1155Receiver-onERC1155Received} and return the acceptance magic value."
      },
      "safeBatchTransferFrom(address,address,uint256[],uint256[],bytes)": {
        "details": "See {IERC1155-safeBatchTransferFrom}."
      },
      "safeTransferFrom(address,address,uint256,uint256,bytes)": {
        "details": "See {IERC1155-safeTransferFrom}."
      },
      "setApprovalForAll(address,bool)": {
        "details": "See {IERC1155-setApprovalForAll}."
      },
      "supportsInterface(bytes4)": {
        "details": "See {IERC165-supportsInterface}. Time complexity O(1), guaranteed to always use less than 30 000 gas."
      },
      "uri(uint256)": {
        "details": "See {IERC1155MetadataURI-uri}. This implementation returns the same URI for *all* token types. It relies on the token type ID substituion mechanism https://eips.ethereum.org/EIPS/eip-1155#metadata[defined in the EIP]. Clients calling this function must replace the `\\{id\\}` substring with the actual token type ID."
      }
    },
    "version": 1
  },
  "userdoc": {
    "kind": "user",
    "methods": {},
    "version": 1
  }
}